:020000040800F2
:10000000D0E60020610200089B1C0008071B0008C6
:10001000991C00086F040008691E00080000000019
:10002000000000000000000000000000A101000826
:10003000ED04000800000000FD010008D51C0008C8
:100040007B0200087B0200087B0200087B0200089C
:100050007B0200087B0200087B0200087B0200088C
:100060007B0200087B0200087B0200087B0200087C
:100070007B0200087B0200087B0200087B0200086C
:100080007B0200087B0200087B0200087B0200085C
:100090007B0200087B0200087B0200087B0200084C
:1000A0007B0200087B0200087B0200087B0200083C
:1000B0007B0200087B0200087B0200087B0200082C
:1000C0007B0200087B0200087B0200087B0200081C
:1000D0007B0200087B0200087B0200087B0200080C
:1000E0007B0200087B0200087B0200087B020008FC
:1000F0007B020008951D00087B0200087B020008B7
:100100007B0200087B0200087B0200087B020008DB
:100110007B0200087B0200087B0200087B020008CB
:100120007B0200087B0200087B0200087B020008BB
:100130007B020008410500087B0200087B020008E2
:100140007B0200087B0200087B0200087B0200089B
:100150007B0200087B0200087B0200087B0200088B
:100160007B0200087B0200087B0200087B0200087B
:100170007B0200087B0200087B02000800000000F0
:100180007B0200087B020008DFF810D000F032F993
:10019000004800470F7E0008AFF30080D0E6002043
:1001A0002C4B19680868B0E8F04F80F30988BFF35A
:1001B0006F8F4FF0000080F311887047000000003F
:1001C00008480068006880F308884FF0000080F35A
:1001D000148862B661B6BFF34F8FBFF36F8F00DF35
:1001E00000BF00BF08ED00E0DFF80C00016841F43B
:1001F00070010160704700BF88ED00E0EFF30980F7
:10020000BFF36F8F134B1A681EF0100F08BF20ED5D
:10021000108A20E9F04F106009B44FF0500080F3CD
:100220001188BFF34F8FBFF36F8F13F0FDFF4FF0B7
:10023000000080F3118809BC19680868B0E8F04F25
:100240001EF0100F08BFB0EC108A80F30988BFF3CE
:100250006F8F704720000020EFF30580704700008B
:100260000648804706480047FEE7FEE7FEE7FEE750
:10027000FEE7FEE7FEE7FEE7FEE7FEE7851D000876
:10028000890100082DE9F05F0546002092469B4653
:1002900088460646814640241BE02846414647469C
:1002A000224600F097F853465A46C01A914110D39F
:1002B00011461846224600F07EF82D1A67EB010819
:1002C0004F4622460120002100F075F817EB000987
:1002D0004E41201EA4F10104DFDC484631462A4687
:1002E0004346BDE8F09F00000649074A08685043AE
:1002F00043F2390210440860400870470149086021
:1003000070470000A80100206D4EC64110B5431A89
:10031000934209D28318881803E010F8011D03F8EE
:10032000011D521EF9D210BD40EA01039B0703D004
:1003300009E008C9121F08C0042AFAD203E011F824
:10034000013B00F8013B521EF9D210BDD2B201E0D0
:1003500000F8012B491EFBD270470022F6E710B5CA
:1003600013460A4604461946FFF7F0FF204610BD23
:1003700030B504460020034600E05B1C934203D2E4
:10038000E05CCD5C401BF8D030BD30B50B4601467B
:1003900000202022012409E021FA02F59D4205D324
:1003A00003FA02F5491B04FA02F52844151EA2F1CE
:1003B0000102F1DC30BD202A04DB203A00FA02F110
:1003C000002070479140C2F1200320FA03F3194343
:1003D00090407047202A04DB203A21FA02F00021E5
:1003E000704721FA02F3D040C2F120029140084345
:1003F00019467047064C074D06E0E06840F00103DF
:1004000094E8070098471034AC42F6D3FFF7C0FEDB
:10041000545501087455010870B58C1810F8015B2B
:1004200015F0070301D110F8013B2A1106D110F88D
:10043000012B03E010F8016B01F8016B5B1EF9D191
:100440002B0705D40023521E0DD401F8013BFAE717
:1004500010F8013BCB1A921C03E013F8015B01F882
:10046000015B521EF9D5A142D8D3002070BDFEE732
:100470000068DFF87480814600EB4001194801EB09
:10048000092100EB8104A4F20A474FF4007ABE1E52
:10049000A4F5027539465246484607F0E1F80028AF
:1004A00009DC484606F006F9D8F8000009F0D0FF4C
:1004B000002013F09BFD304607F0B6FC34F8082C02
:1004C0002946484607F0A0FC0028E3DA484606F033
:1004D000F1F8D8F8000009F0BBFF002013F086FD0A
:1004E000D8E70000309A00200C0000207047000080
:1004F000064908B509684FF4FA52B1FBF2F14143DD
:10050000009100BF491E0091FBD208BD1C000020D5
:1005100038B50446006800F58050816941F48011C7
:100520008161206800F58050806900900120FFF70C
:10053000DFFF2068009900F58050816138BD000020
:10054000014800F0FEB900008C9300202DE9F04135
:10055000044621B14FF40060E060C000A060E06993
:100560000025002861D02A462368402619683C48A7
:100570000140D4E902073843104340F400700843B7
:10058000186020680768012000F076F8206807608E
:100590002068466020684668012000F06DF82068F9
:1005A0004660206885602068C560216888694FF6CC
:1005B0004172104040F08000886120688669012007
:1005C00000F05AF8206886612068C5612068C56916
:1005D000012000F051F82068C561216801F58051C3
:1005E0008869204A1040204A02438A61206800F549
:1005F00080508569012000F03FF8206800F58050A8
:1006000085612068194900F580500160206800F577
:1006100080500568012000F02FF8206800F5805018
:100620000560A069012803D009E04FF480629BE7D0
:10063000206800F58050C1690D4A1143C1616069AD
:100640000C4A818811640178C37841EA0361837898
:1006500040781B0443EA002001435164BDE8F08167
:100660000F8120FF233FDEF8040020028020C1021A
:10067000400001000080024070B5044600F09CFD7F
:100680000546601C02D004480078044400F094FD44
:10069000401BA042FAD370BD100000202DE9F041AC
:1006A000054690F845000C46012875D0012685F8CE
:1006B0004560022085F84400002C70D02A6811683B
:1006C00041480140D4E900031843D4E902373B43D1
:1006D0001843AB6818432369184363691843EB68F0
:1006E0001843A3691843E3691843236A1843636AEC
:1006F0001843A36A1843084310602868076801205C
:10070000FFF7BAFF28680760D4E90B010843D4E972
:100710000D1211430843E16B0843216C0843616CDF
:100720000843A16C0843296848602868476801208D
:10073000FFF7A2FF286847602968E06C8860296895
:10074000206DC8602A6891694FF641700140D4E974
:1007500016031843B4F85470236E43EA0743184352
:10076000636E1843A36E1843084390612868876935
:100770000120FFF781FF28688761D4E91B01084346
:100780002968C8612868C4690120FFF775FF2868D7
:10079000C46114E000E002E00220BDE8F0812968B5
:1007A000086820F49042D5E902031843104308601A
:1007B000286804680120FFF75FFF2868046005F8D7
:1007C000446F00206870E8E70F8120FF2DE9F043B7
:1007D00090F845400025012C0DD04FF0010C80F819
:1007E00045C0022480F8444044F2F4574FF00049D9
:1007F0005E1E816217E00220BDE8F08301EB451424
:10080000C4F80090C5EBC51808EB480802EB88084F
:10081000C4E90178B54204D204F12008C4F80C8080
:1008200000E0E1606D1C9D42E8D3026802F5805251
:10083000D16080F844C0002180F845100846DBE70D
:100840002DE9F043914690F845200024012A0AD072
:10085000012680F84560022280F844204FF4801C75
:100860005D1EC1621BE00220BDE8F08301EB441273
:10087000C2F800C0C4EBC41707EB470809EB8807B0
:100880009760C7691FB9176847F440071760AC4203
:1008900003D202F12007D76000E0D160641C9C42C3
:1008A000E4D3026802F58052116180F844600021AF
:1008B00080F845100846D7E7704730B590F84510E6
:1008C0000023012908D0012280F84520022180F868
:1008D00044100024816A1AE0022030BD0D685B1CC0
:1008E000C5F30125022D0AD00D6815F4407F09D00B
:1008F0004163836B5B1C8363012B12D012E0826324
:10090000016302E0856B6D1C8563C96881620D68B7
:10091000002D01DB042BE1D300F8442F44700120AB
:1009200030BD01630B68C3F30D431B1FC363036B2F
:100930009B680364C96840F8281F02774477002049
:1009400030BD70B50446006800F5805041694FF035
:10095000000549064FF0010608D5204600F0DAF9F7
:100960002068402100F58050416109E04069C007DE
:100970000AD0204600F0DCFA206800F5805046617D
:1009800084F8446084F8455020684FF4803100F5C5
:1009900080504161206800F58050406900040CD50A
:1009A0002046FFF789FF20684FF4004100F5805092
:1009B000416184F8446084F8455070BD2DE9FC47DE
:1009C0004FF000060400B146009603D094F84400AE
:1009D00018B107E00120BDE8FC8784F84560204697
:1009E00000F0E2F86648016841F480410160006867
:1009F00000F4804001906348016821F40001016027
:100A00000168226A11430160206800F58050016886
:100A100041F00101016000F0CFFB05464FF4FA7789
:100A200009E000BF00F0C8FB401BB84203D9032017
:100A300004F8440F67E0206800F580500068C007A4
:100A4000F0D12068006920F01C0500F02DFD4E4912
:100A50004E4A0144914202D245F0080516E04C4945
:100A60004C4A0144914202D245F00C050EE04A493D
:100A70004A4A0144914209D34949084449498842B4
:100A800002D245F0040501E045F01005206805613B
:100A90004FF400420021204600F04CFA0125A8BB8B
:100AA000FF20FFF7E9FD606888B300F085FB804612
:100AB00041F288376A460121204600F0E9F800F04B
:100AC0007BFBA0EB0800B84217D800984007F1D58F
:100AD0004FF480520021204600F02CFAB0B900F00B
:100AE0006BFB80466A460121204600F0D1F800F0F9
:100AF00063FBA0EB0800B8420AD901212046FFF7AA
:100B000025FD04F8445F0320667064E724E018E0E4
:100B100000988006E6D56A461021204600F0B8F815
:100B2000D0B90098410703D54FF40061E16000E0BF
:100B3000E660800701D5A66019E04FF48040A06010
:100B400015E0E068A168C00840EA510082B20021C7
:100B5000204600F0EFF930B101212046FFF7F6FC06
:100B600084F8445036E740F6FF70FFF785FD4946AC
:100B70002046FFF7EBFC84F8445000202BE70000F0
:100B8000443802400438014000D3CEFEC0E1E40006
:100B900040F1E9FD40787D0100796CFC005A620269
:100BA000001F0AFA80F0FA02F0B587B0044614215B
:100BB0006846FFF7D2FB3149206888425BD1304854
:100BC0000024016841F000710160016801F00071CA
:100BD0000591016841F080610160016801F0806168
:100BE0000591016841F000610160016801F0006158
:100BF0000591016841F004010160016801F0040100
:100C00000591016841F001010160016801F00101F5
:100C10000591016841F0020101600068022500F0C1
:100C2000020005903220CDE9000502AA03260B2719
:100C300082E8D0006946134800F0B8F98620CDE973
:100C4000000502AA694682E8D0000F4800F0AEF91C
:100C50004FF46050CDE9000502AA694682E8D00051
:100C60000A4800F0A3F9002205213D2000F030FBE6
:100C70003D2000F01FFB07B0F0BD000000800240E7
:100C800030380240000802400000024000040240E8
:100C90002DE9F047044690F84400914682281DD083
:100CA000822084F84400226810694FF6FF7500F036
:100CB0001C03208A05EAC02018434FF4F86303EAB6
:100CC0008111014321F0020040F00105156100F09F
:100CD00073FA064601274FF4803810E00220BDE881
:100CE000F08700BF00F068FA801B404505D304F888
:100CF000447F002060700320F1E720680569E80761
:100D0000F0D12068406981B2C9F8001084F84470BD
:100D10000020E4E70148006809F09ABBA000002029
:100D2000F8B5044690F84500012839D0012584F82B
:100D30004550022084F8440020680026016841F0F4
:100D4000080101602068006800902846FFF7D0FB8A
:100D50002168009808602068016841F00401016082
:100D60002068006800900120FFF7C2FB216800980E
:100D700008602046FFF7CCFB206800F580508169B1
:100D800041F400518161206800F58050816941F093
:100D90000201816184F8445084F845600020F8BD68
:100DA0000220F8BDF8B5044690F84500012839D076
:100DB000012584F84550022084F84400206800F59D
:100DC0008050816921F400518161206800F58050D4
:100DD000816921F00201816120680026016821F00B
:100DE000040101602068006800900120FFF780FB8B
:100DF0002168009808602046FFF78AFB2068016898
:100E000021F0080101602068006800900120FFF7D0
:100E10006FFB21680098086084F8445084F84560AE
:100E20000020F8BD0220F8BDF0B590F84520002361
:100E3000012A11D0012780F84570022280F8442051
:100E4000002459B1C66A3268002A0ADA122100F871
:100E5000441F44700120F0BD0220F0BD00F8447F23
:100E6000F7E740F2F455A9420BD9B1FBF5FCB1FB11
:100E7000F5F205FB1C1CBCF1000F00D0521C012A2E
:100E800043D1326842F040523260C26AC1F30C0171
:100E90005160C16A0A6842F000420A60C16AC968CA
:100EA000C16234E0D6F800C02CF0405CC6F800C047
:100EB00033B9C66AD6F800C04CF0805CC6F800C0F2
:100EC000C66A7560561EB34214D1C66AD6F800C011
:100ED0004CF0005CC6F800C0C2F10106C6EBC616B5
:100EE00006EB4606D0F82CC001EB8606C6F30C06CE
:100EF000CCF80460C66AD6F800C04CF0004CC6F8C6
:100F000000C0C66A5B1CF668C6629342CAD3016819
:100F100001F580514A69520705D504224A610168EA
:100F200001F580514C6000F8447F44700020F0BD12
:100F3000704700002DE9F041044690F84400422833
:100F40001ED0422084F84400236818694FF6FF76CB
:100F500000F01C05208A06EAC02028434FF4F865FB
:100F600005EA8111014390B241F003055861206800
:100F7000056100F021F9064601274FF4803810E0A2
:100F80000220BDE8F08100BF00F016F9801B40454B
:100F900005D304F8447F002060700320F1E7206847
:100FA0000569E807F0D184F84470EAE72DE9F84FC5
:100FB000DFF8BCA1002201250AF1040B03264FF043
:100FC0000F090BF1040E00BF0B6805FA02F4234071
:100FD000A34270D10F7907F00307012F01D0022F30
:100FE00016D187684FEA420806FA08FC27EA0C0780
:100FF000D1F80CC00CFA08FC4CEA070CC0F808C089
:101000004768A7430C79C4F3001494403C43446000
:101010000C79E443A4070AD0C4684FEA420C06FAEC
:101020000CF7BC438F6807FA0CF72743C7600C79AD
:1010300004F00304022C12D1D40800EB840CDCF879
:1010400020405707FF0E09FA07F824EA0804D1F8F0
:10105000108008FA07F848EA0408CCF820800468F1
:101060004FEA420C06FA0CF7BC430F7907F003076E
:1010700007FA0CF7274307604C6814F4403F70D020
:101080003C4C276847F480472760246822F0030718
:1010900004F480440094384C07EB040CDCF8084856
:1010A00097074FEA177809FA08F7BC43334FB8425D
:1010B00002D1002724E054E0314FB84201D101278A
:1010C0001EE0304FB84201D1022719E02E4FB8423E
:1010D00001D1032714E02D4FB84201D104270FE0BE
:1010E0002B4FB84201D105270AE02A4FB84201D15F
:1010F000062705E0284FB84201D1072700E008275E
:1011000007FA08F72743CCF80878DAF80040574682
:10111000D1F804C09C435FEACC3C00D51C433C6042
:10112000DBF800405F46D1F804C09C435FEA8C3C8A
:1011300000D51C433C60DEF800407746D1F804C07F
:101140009C435FEACC2C00D51C433C60084F0C3715
:101150003C68D1F804C09C435FEA8C2C00D51C434A
:101160003C60521C102AFFF42FAFBDE8F88F00003E
:10117000003C014044380240003001400000024081
:101180000004024000080240000C0240001002402F
:101190000014024000180240001C0240426921EA8B
:1011A00002030A4043EA0241816170470AB181614A
:1011B00070470904FBE700000148806870470000A1
:1011C0001000002002488168027811448160704755
:1011D000100000200B4810B5016841F40071016057
:1011E000016841F480610160016841F4807101602F
:1011F000032000F08DF80F2000F006F800F03EF814
:10120000002010BD003C024010B5014688B000220D
:101210002D2000F05DF82D2000F04CF8134800243C
:10122000016841F480710160006805A900F48070D4
:101230000690684600F018F900F03CF90C494000AF
:10124000B0FBF1F10C480B4A491E026040F2E73254
:10125000C0E90324C0E9011400F026FB10B101200D
:1012600008B010BD044800F04DFBF9E740380240DB
:1012700040420F0000200040B00100200C4882B026
:10128000016841F480410160006800F480400090F2
:101290000748001F016841F080510160006800228A
:1012A00000F0805000900F21901E02B000F010B8A6
:1012B00044380240002809DB00F01F020121914060
:1012C0004009800000F1E020C0F8001170470000E4
:1012D000F0B40E4B1B680C46C3F30223C3F10705A1
:1012E000042D00D90425191D072901D2002300E08F
:1012F000DB1E012606FA05F1491E214099409E4059
:10130000761E16403143F0BC00F0C0BD0CED00E08D
:10131000064900F0070208684FF6FF03184040EA4C
:101320000220034A10430860704700000CED00E003
:101330000000FA052DE9F0470E46050065D0DFF8FC
:101340001481D8F80000F7B200F00700B04207D2CD
:1013500088F80070D8F8000000F00700B04254D1BF
:1013600028683D4C810712D5400703D5206840F41A
:10137000E05020602878000703D5206840F46040E2
:1013800020602068A96820F0F000084320602878D9
:10139000C0072DD0304968680839012812D00228CA
:1013A00013D0032811D00968890700292DDA216894
:1013B00021F0030101432160FFF7FEFE814641F267
:1013C000883A0EE009688903EFE709688901ECE7CC
:1013D000FFF7F2FEA0EB0901514502D90320BDE859
:1013E000F0872068696800F00C00B0EB810FEFD146
:1013F000D8F80010404601F00701B14207D9077044
:10140000006800F00700B04201D00120E7E728782B
:10141000400705D52068E96820F4E05008432060C3
:101420002878000706D52068296920F4604040EA42
:10143000C100206000F04EF82168084AC1F3031192
:10144000515CC8400649086006480068FFF7DCFEAA
:101450000020C4E7003C024008380240185201084E
:101460001C000020140000200F2202600C4A1368A8
:1014700003F003034360136803F0F0038360136811
:1014800003F4E053C36012684FF4E05303EAD2025E
:1014900002610448006800F007000860704700001F
:1014A00008380240003C02400148006870470000D4
:1014B0001C0000200448054900680968044AC1F37B
:1014C0008221515CC84070471C000020083802404F
:1014D00028520108154810B5006810F00C02144895
:1014E00013D01449042A0FD0082A0ED10F4C241F00
:1014F0002268236802F03F025B0207D52068C0F330
:101500008810A0FB010106E0084610BD2168C1F368
:101510008811A1FB00010023FEF7B4FE2168C1F38E
:101520000141491C4900B0FBF1F010BD08380240F0
:101530000024F40040787D012DE9F84F04006ED0BE
:101540002078DFF84C93C007A9F104054AD009F1CF
:1015500004000168C1F38101012908D00068C0F3CB
:10156000810002280AD1D9F80000400206D5286877
:10157000800337D560680028E1D033E06068B0F5BB
:10158000803F10D0B0F5A02F286810D020F4803014
:101590002860286820F4802028606068A8B1FFF7E0
:1015A0000BFE06460DE0286840F48030F4E740F476
:1015B00080202860F7E700BFFFF7FEFD801B64284E
:1015C00073D828688003F7D50CE0FFF7F5FD0646D1
:1015D00005E000BFFFF7F0FD801B6428F0D8286805
:1015E0008003F7D42078DFF8AC8280074FF0000A40
:1015F0003ED5A748001D016811F00C0F08D0006807
:10160000C0F3810002280BD1D9F80000400207D4B2
:101610002868800716D5E068012800D112E033E180
:10162000E068B8B10120C8F80000FFF7C5FD064624
:1016300005E000BFFFF7C0FD801B0228C0D8286866
:101640008007F7D52868216920F0F80040EAC1003A
:1016500028600DE0C8F800A0FFF7AEFD064604E0E4
:10166000FFF7AAFD801B02281FD828688007F7D43F
:101670002078000722D5864F87486169703771B19D
:1016800001210160FFF798FD064604E0FFF794FD95
:10169000801B022809D838688007F7D50EE0C0F80B
:1016A00000A0FFF789FD064605E082E0FFF784FD14
:1016B000801B02287DD838688007F7D4207840073F
:1016C00068D5DFF8CCB100270BF13C0BDBF800004C
:1016D000C0000BD4DBF8001041F08051CBF80010B3
:1016E000DBF80000012700F0805000906B4E30685E
:1016F000C00510D4306840F480703060FFF75CFDA6
:10170000009005E0FFF758FD0099401A022850D8D4
:101710003068C005F6D55E4EA0686C3601280FD043
:101720000528306810D020F001003060306820F0CB
:1017300004003060A068B8B1FFF73EFD00900FE0F4
:10174000306840F00100F4E740F004003060F7E753
:10175000FFF732FD0099411A41F28830814266D884
:1017600030688007F4D50EE0FFF726FD009007E013
:10177000FFF722FD0099411A41F28830814256D884
:1017800030688007F4D42FB1DBF8001021F08051CD
:10179000CBF80010A069C8B33D49091D0968C1F321
:1017A000810102294AD00228504607D0C8F86000BB
:1017B00000E03CE0FFF700FD04463BE04746C8F888
:1017C0006000FFF7F9FC064605E000BFFFF7F4FCF8
:1017D000801B02282BD828688001F7D4D4E90701A0
:1017E0000843A16A2E4A490802EB0141626A41EAB4
:1017F0008211084394F82C1040EA0161C9F80010E6
:1018000001203866FFF7D8FC044606E03EE000BF42
:10181000FFF7D2FC001B022809D828688001F7D501
:1018200034E000BFFFF7C8FC001B022802D90320E8
:10183000BDE8F88F28688001F4D427E00128F7D0AC
:10184000D9F80000E26900F4800191421CD1226ABB
:1018500000F03F01914217D147F6C071626A014022
:10186000B1EB821F10D1A26A4FF0FF3300F4403178
:1018700003EB5202B1EB024F06D194F82C1000F0AA
:101880007060B0EB016F01D00120D1E70020CFE7FD
:101890000438024000004742800E4742007000407A
:1018A0000000FFFF7047704710B5040003D094F8A4
:1018B0003D0010B107E0012010BD002084F83C007D
:1018C000204600F01EF8022084F83D00211D20680B
:1018D00000F066FA012084F8460084F83E0084F89F
:1018E0003F0084F8400084F8410084F8420084F806
:1018F000430084F8440084F8450084F83D0000204B
:1019000010BD704790F83D10012901D001207047AB
:10191000022180F83D100168CA6842F00102CA60E5
:1019200000681149884214D0B0F1804F11D00F499E
:1019300088420ED00E4988420BD00E49884208D00A
:101940000D49884205D00D49884202D00C49884291
:1019500004D1816801F00701062903D0016841F034
:1019600001010160002070470000014000040040B8
:1019700000080040000C004000040140004001400D
:1019800000180040704770B50446006801694FF0C8
:101990000005C943890715D4C168C943890711D413
:1019A000E91E0161012020772068806980072046B8
:1019B00002D0FFF7E7FF04E000F098F8204600F0BF
:1019C00096F8257720680169C943490717D4C1688B
:1019D000C943490713D46FF0040101610220207745
:1019E0002068806910F4407F204602D0FFF7CAFFCC
:1019F00004E000F07BF8204600F079F825772068B5
:101A00000169C943090716D4C168C943090712D43B
:101A10006FF008010161042020772068C069800709
:101A2000204602D0FFF7AEFF04E000F05FF820464A
:101A300000F05DF8257720680169C943C90617D40D
:101A4000C168C943C90613D46FF0100101610820B1
:101A500020772068C06910F4407F204602D0FFF74D
:101A600091FF04E000F042F8204600F040F82577AE
:101A700020680169C943C90708D1C168C943C907BA
:101A800004D1891E0161204600F032F82068016906
:101A9000C943090609D4C168C943090605D46FF0D2
:101AA000800101612046FFF7FDFE20680169C943FE
:101AB000490609D4C168C943490605D46FF04001FD
:101AC0000161204600F01EF820680169C9438906BB
:101AD0000BD4C168C943890607D46FF020010161A6
:101AE0002046BDE87040FFF7DEBE70BD704770470E
:101AF00000680349884201D1FFF764BB70470000CA
:101B0000002000407047FEE710B503210A4A08464E
:101B100008F051FC094C084A0021E060483A0848A6
:101B200008F0C2FC044A6060243A0021054808F02D
:101B3000BBFCA06010BD000008520108000000209E
:101B40009D1C0008AD1C00082DE9F04186B0142151
:101B50006846FEF702FC1E480024016841F00401BB
:101B60000160016801F004010591016841F0010183
:101B70000160016801F001010591016841F0020175
:101B800001600068012200F00200124F95020590EA
:101B900029463846FFF70AFBDFF83C80AE100022EA
:101BA00031464046FFF702FB00950125CDE902547E
:101BB000694638460195FFF7F9F90096CDE90154D9
:101BC000694640460394FFF7F1F906B0BDE8F0819D
:101BD0003038024000040240000802403EB50021B7
:101BE000084610F0D7FF24490020254A0860091D47
:101BF000214B0860091D08330860CDE900021F4928
:101C000002911A1F111F1F4807F092FE1D4808F08D
:101C1000ABF81C4C94F831004007204602D508F080
:101C2000BBF901E008F0A6F81749164808F0F6F8E5
:101C300001210022084608F0BEFB0F490839486020
:101C40001431C1E900400F4824213830FEF785FBEC
:101C50000C480EA13830024601604FF480614161AA
:101C60001021816104490B480C3108F01DFCBDE8CE
:101C70003E40044801F08EBEAC000020652D0108F6
:101C8000B14B0008D4930020D54C00084C696E6B12
:101C900054687200914C0008FEE7FEE7FFF79EFFD4
:101CA00012F0F4FA642008F0C7F9F9E7074E084C7F
:101CB0004FF48075C82008F0BFF929463046FFF779
:101CC0006DFAE06808F06DFB2060F3E70008024061
:101CD0000000002010B54FF0E020006913F076F806
:101CE000012803D0BDE8104012F092BB10BD0000E7
:101CF00030B593B030216846FEF72FFB14210CA8B5
:101D0000FEF72BFB1D480025016841F08051016062
:101D1000006800F0805011901948016841F480413A
:101D200001600068022400F48040119001200390BB
:101D300010200490009406940820CDE90750A820B4
:101D4000CDE9090404200B906846FFF7F5FB08B1C4
:101D500072B6FEE70CA90F2081E831004FF4A050C5
:101D60000F904FF48050109005210CA8FFF7E2FA75
:101D7000002801D072B6FEE713B030BD40380240F3
:101D8000007000400248016841F470010160704732
:101D900088ED00E00148FFF7F6BD0000B00100202B
:101DA000F0B50268254C264D264E274F274B4FF0A5
:101DB000804CA04209D0604507D0A84205D0B0426F
:101DC00003D0B84201D0984204D122F0700E4A6884
:101DD00042EA0E02A0421BD0604519D0A84217D09B
:101DE000B04215D0B84213D0984211D0184DA84235
:101DF0000ED0184DA8420BD0174DA84208D0174D51
:101E0000A84205D0164DA84202D0164DA84203D1D3
:101E100022F44075CA682A434D6922F080022A43A1
:101E200002608A68C2620A688262A04201D0984257
:101E300001D10969016301214161F0BD0000014048
:101E40000004004000080040000C00400004014075
:101E5000004001400044014000480140001800409B
:101E6000001C004000200040FEE700000FB4054BBE
:101E700010B503A9044A029800F028F810BC5DF8D8
:101E800014FB0000BD4E0008AC0100200907090E3C
:101E9000002804DB00F1E02080F80014704700F017
:101EA0000F0000F1E02080F8141D704702E008C820
:101EB000121F08C1002AFAD170477047002001E0C4
:101EC00001C1121F002AFBD1704700002DE9FF4F0E
:101ED0008BB09A460F460546002606E025280BD013
:101EE00052460D9990476D1C761C28780028F5D134
:101EF0000FB03046BDE8F08F0024A04601226049B3
:101F000000E0044315F8013F203B02FA03F00842C9
:101F1000F7D128782E2817D115F8010F44F00404C2
:101F20002A280ED06FF02F022878A0F1300109295D
:101F30000AD808EB880102EB410100EB01086D1C97
:101F4000F2E757F8048B6D1C287869283ED006DC30
:101F50000028CDD063280BD0642804D136E0732844
:101F600010D075284BD052460D999047761C85E0CD
:101F700017F8040B8DF8000000208DF80100E946E9
:101F8000012003E057F8049B4FF0FF3061074FF04A
:101F9000000401D40AE0641C44450DDA8442FADBF3
:101FA00019F804100029F6D106E0641C8442FCDB19
:101FB00019F804100029F8D1264404E019F8010B9F
:101FC00052460D999047641EF8D257E001CF4FF06A
:101FD0000A0B002802DA40422D2102E0210504D537
:101FE0002B218DF82410012103E0E10705D02021E9
:101FF000F7E70DF1200908910CE00021F9E701CF86
:102000004FF00A0BF9E75946FEF7BFF901F130022C
:1020100009F8012D0028F6D1ADEB090000F1200BE5
:10202000600701D44FF00108D84502DDA8EB0B0092
:1020300000E000208046002406E009A85246005D2A
:102040000D999047641C761C08988442F5DB04E0E7
:10205000302052460D999047761CB8F10001A8F146
:102060000108F5DC05E019F8010B52460D9990477F
:10207000761CBBF10001ABF1010BF4DC6D1C34E705
:10208000092801002DE9F04790460E4604006FF044
:10209000050555D004F1140081460AF049FA0028DC
:1020A0004ED0EF1F002E3DD0B8F1000F06D032A366
:1020B00040F22A223DA147A0FFF7D8FE2078616AAE
:1020C00006F096FC05004FF0FF383DD06E600AF038
:1020D00061F9294648460AF01FFAA0B36C6800214E
:1020E00020460AF03DFD002120460EF093F9002124
:1020F00020460EF0CFFE0022114620460DF0BEF91C
:10210000002120460BF0ACF90020686005F11000BA
:1021100004460AF0E5F920460AF0FBF9284606F0E5
:1021200015FE1FE0384605F0F1F9014648460AF071
:10213000F3F928B9636A1BB100221146204698477B
:102140002846BDE8F0870FE0384605F0DFF9014684
:1021500048460AF0E1F928B9636A1BB1002211462A
:10216000204698474046ECE7636A1BB100221146BF
:10217000204698470020E4E72E2E2F4D6964646CBA
:102180006577617265732F54686972645F5061721C
:1021900074792F4C7749502F7372632F6170692FB8
:1021A0006170695F6D73672E63000000657870650C
:1021B0006374206E6577706362203D3D204E554C00
:1021C0004C206F7220657272203D3D204552525F57
:1021D0004F4B0000417373657274696F6E20222546
:1021E0007322206661696C6564206174206C696E7D
:1021F0006520256420696E2025730A002DE9F041D1
:10220000884607460024174D0AF010F905EB041123
:10221000096841B10AF032F9641C042CF4DB4FF078
:10222000FF30BDE8F08105EB04152F600AF026F9B8
:1022300000266E60A87B002806D00BA340F20E2279
:1022400016A11EA0FFF712FE2E8138780121B1EBF6
:10225000101F02D15FEA080000D001206881AE8122
:102260002046DEE754A600202E2E2F4D6964646CB4
:102270006577617265732F54686972645F5061722B
:1022800074792F4C7749502F7372632F6170692FC7
:10229000736F636B6574732E63000000736F636B01
:1022A0006574735B695D2E73656C6563745F7761DC
:1022B0006974696E67203D3D20300000417373658D
:1022C0007274696F6E2022257322206661696C65C5
:1022D00064206174206C696E6520256420696E201D
:1022E00025730A0058B1426A002A0FD05379082B8F
:1022F0000CD10968D269914208D100F0C3BA04A395
:1023000040F28B3210A114A0FFF7B0BD704700005F
:102310002E2E2F4D6964646C6577617265732F543E
:10232000686972645F50617274792F4C7749502FDD
:102330007372632F636F72652F697076342F6468D0
:1023400063702E63000000006E6574696620213D95
:10235000204E554C4C000000417373657274696FD8
:102360006E2022257322206661696C656420617489
:10237000206C696E6520256420696E2025730A0033
:102380002DE9FC4105001AD06C6AECB10023638290
:10239000A16A4FF03C07B1F1FF3F4FF480364FF098
:1023A00001024FF6FF7019D01E31B1FBF7F1B142B7
:1023B00000D301460904090CA1820ED00EE02DA322
:1023C00040F2154239A103E02AA340F217423EA190
:1023D00043A0FFF74BFDBDE8FC81A282E16AB1F1A9
:1023E000FF3F0CD01E31B1FBF7F1B14200D30146E3
:1023F0000904090C618100D162816189E181216B4D
:10240000B1F1FF3F0CD01E31B1FBF7F1B14200D367
:1024100001460904090CA18100D1A281A189218270
:102420006289A1898A4201D301B16381E17909B14D
:10243000206A08E0217F7F2901D8FF2003E0C0291E
:1024400001D36FF07F400090606A019028B9E06985
:102450000099084040F0807001900A21204601F068
:1024600091FA01AB6A4604F11C01284607F04CFCC6
:10247000B1E700002E2E2F4D6964646C65776172A0
:1024800065732F54686972645F50617274792F4C60
:102490007749502F7372632F636F72652F6970765F
:1024A000342F646863702E630000000064686370FA
:1024B0005F62696E643A206E6574696620213D2012
:1024C0004E554C4C00000000646863705F62696E9A
:1024D000643A206468637020213D204E554C4C00C6
:1024E000417373657274696F6E20222573222066B2
:1024F00061696C6564206174206C696E6520256477
:1025000020696E2025730A0070B5446A05460821CB
:10251000204601F037FA002204F11C01284601F0A0
:10252000F7FFA079FF2801D2401CA0714FF4FA7187
:1025300040F2E730B0FBF1F0208170BD70B5294862
:1025400004684CE0606AA0B3417991B3818A69B1B3
:10255000418A491C89B24182828A914206D1204631
:1025600001F046F8204601F015FA37E0018A19B16A
:102570004A1E0282012906D0C189D1B14A1EC281F8
:10258000012917D02AE0656A20466979012905D01A
:102590000A2903D0052901D004291FD100F0ACFE7F
:1025A000A88A698A401A022818DB00EBD07040081C
:1025B000288213E0656A20466979012903D00A2937
:1025C00001D005290AD101F071F8A889698A401A59
:1025D000022803DB00EBD0704008E8812468002C5F
:1025E000B0D170BD1C0100202DE9F0479946164678
:1025F0000D4607001BD0002D1ED04FF49A744FF4E7
:1026000020722146362007F0F9FFB0F100081BD0F8
:10261000B8F80A00A246504506D232A340F27172C1
:102620003EA14EA0FFF722FC032E12D10EE02DA3F7
:1026300040F2697253A103E02AA340F26A7259A1E1
:1026400046A0FFF713FC0020BDE8F0876879032857
:1026500008D1A8795B4C08B1606802E0FDF744FE40
:1026600060602860D8F8044051462046FDF775FEAA
:1026700001202070607097F83000A070286804F086
:10268000A1F86060082E0AD0042E08D0072E06D0CC
:10269000032E06D16879052801D0042801D1786875
:1026A000E060002039182218401C91F82A1080B2EE
:1026B00011770628F6D34448C4F8EC0004F1F00181
:1026C000012335220C46002000F0C4FA3246214690
:1026D00000F00CFBB9F1000F01D0A9F80000404652
:1026E000B2E700002E2E2F4D6964646C657761722D
:1026F00065732F54686972645F50617274792F4CEE
:102700007749502F7372632F636F72652F697076EC
:10271000342F646863702E63000000006468637087
:102720005F6372656174655F6D73673A20636865A6
:10273000636B2074686174206669727374207062C0
:1027400075662063616E20686F6C642073747275A7
:10275000637420646863705F6D73670041737365B1
:102760007274696F6E2022257322206661696C6520
:1027700064206174206C696E6520256420696E2078
:1027800025730A00646863705F6372656174655FD6
:102790006D73673A206E6574696620213D204E5541
:1027A0004C4C0000646863705F6372656174655FC0
:1027B0006D73673A206468637020213D204E554C4C
:1027C0004C000000800100206382536310B50B4C65
:1027D0002078002805D10AA3FF2217A11FA0FFF728
:1027E00045FB2078401E10F0FF00207004D1A06847
:1027F00010F054FF0020A06010BD000080010020F8
:102800002E2E2F4D6964646C6577617265732F5449
:10281000686972645F50617274792F4C7749502FE8
:102820007372632F636F72652F697076342F6468DB
:1028300063702E6300000000646863705F70636201
:102840005F726566636F756E7428293A20726566DB
:10285000636F756E74206572726F72004173736579
:102860007274696F6E2022257322206661696C651F
:1028700064206174206C696E6520256420696E2077
:1028800025730A00FEB5446A06460C21204601F075
:1028900079F802AB042221463046FFF7A5FE050079
:1028A00028D069680423F03132220F46BDF80800B1
:1028B00000F0D0F9ADF80800E06903F083FF0246AC
:1028C0003946BDF8080000F06FFAADF808002A4656
:1028D000394600F039FB0F484323CDE900600F482B
:1028E0000D4A2946806811F0B9F80646284608F0D6
:1028F0009BFA01E04FF0FF36A079FF2801D2401C7F
:10290000A07142F603104FF4FA71B0FBF1F0208190
:102910003046FEBDD0530108D45301088001002089
:102920002DE9FE4F446A07464FF000090621204674
:10293000C4F81C9001F026F802AB0122214638466B
:10294000FFF752FE06003BD071680223F0318A4641
:1029500039225546BDF8080000F07CF9ADF80800B2
:102960003A8D294600F08CFAADF80800032337228F
:10297000294600F06FF9DFF88480ADF808000025E3
:10298000514618F80520BDF8080000F0AFF96D1C9D
:10299000EDB2ADF80800032DF2D33246514680B2B5
:1029A00000F0D2FA16484323CDE900701348154AC7
:1029B000401E3146806811F051F8304608F034FA74
:1029C000A079FF2801D2401CA071C1B2062902D211
:1029D0000120884000E03C2000EB4001C1EBC0102A
:1029E0004FF6FF7101EAC0004FF4FA7100F2F310E4
:1029F000B0FBF1F020814846BDE8FE8F8101002048
:102A0000D0530108D453010870B50B480025046861
:102A10000EE0606A58B10189012903D9A1F10101D1
:102A2000018104E003D10581204601F055F82468B6
:102A3000002CEED170BD00001C01002070B5446A6E
:102A40000020154D20626062EA78144E0AB1F268E7
:102A5000A2622A790AB1326901E0A26A5208E262EE
:102A60006A790AB1726903E0A26AC2EBC202D208B3
:102A700022630969E161A97921B1B06903F0A2FE7D
:102A800020620120E071E879002803D0F06903F0AA
:102A900099FE606270BD00008C010020BCDD00204A
:102AA00010B5154C207800281ED1A068002805D04C
:102AB00012A3E5221FA129A0FFF7D8F910F09AFD73
:102AC000A060B0B1417A442241F0200141722D4909
:102AD00010F0D6FA43222B49A06810F06BFB0022BD
:102AE0002949A06810F096FD2078401C2070002035
:102AF00010BD4FF0FF3010BD800100202E2E2F4D55
:102B00006964646C6577617265732F546869726477
:102B10005F50617274792F4C7749502F7372632F15
:102B2000636F72652F697076342F646863702E63EB
:102B300000000000646863705F696E635F706362C9
:102B40005F726566636F756E7428293A206D656DD6
:102B50006F7279206C65616B0000000041737365D2
:102B60007274696F6E2022257322206661696C651C
:102B700064206174206C696E6520256420696E2074
:102B800025730A00D0530108D134000870B5446A97
:102B90000546002C22D060790026042818D004DCD9
:102BA00000281BD0032804D112E0052810D00A28E1
:102BB0000ED00C2806D90AA340F26D3216A11BA034
:102BC000FFF754F9A6712846BDE87040FFF7A8BE8C
:102BD000A6712846BDE8704000F0FABB70BD000049
:102BE0002E2E2F4D6964646C6577617265732F5466
:102BF000686972645F50617274792F4C7749502F05
:102C00007372632F636F72652F697076342F6468F7
:102C100063702E6300000000696E76616C69642049
:102C2000646863702D3E73746174650041737365ED
:102C30007274696F6E2022257322206661696C654B
:102C400064206174206C696E6520256420696E20A3
:102C500025730A002DE9F0411D4604462844801CD6
:102C600017460E46442806D907A340F29A52144943
:102C700014A0FFF7FBF83755641CA0B23554401C74
:102C800080B2BDE8F08100002E2E2F4D6964646C87
:102C90006577617265732F54686972645F50617201
:102CA00074792F4C7749502F7372632F636F72655D
:102CB0002F697076342F646863702E630000000003
:102CC000CC540108417373657274696F6E202225BC
:102CD0007322206661696C6564206174206C696E82
:102CE0006520256420696E2025730A0070B515469D
:102CF0000E460446442806D305A340F2A65212A16C
:102D00001FA0FFF7B3F83555641CA0B270BD0000DA
:102D10002E2E2F4D6964646C6577617265732F5434
:102D2000686972645F50617274792F4C7749502FD3
:102D30007372632F636F72652F697076342F6468C6
:102D400063702E6300000000646863705F6F7074CE
:102D5000696F6E5F627974653A206F7074696F6E27
:102D6000735F6F75745F6C656E203C204448435000
:102D70005F4F5054494F4E535F4C454E000000008A
:102D8000417373657274696F6E2022257322206609
:102D900061696C6564206174206C696E65202564CE
:102DA00020696E2025730A0070B50546001D144683
:102DB0000E46442806D90BA340F2B75217A126A00D
:102DC000FFF754F8200E70556D1CA8B2210C315439
:102DD000401C80B2210A3154401C80B23454401C43
:102DE00080B270BD2E2E2F4D6964646C6577617260
:102DF00065732F54686972645F50617274792F4CE7
:102E00007749502F7372632F636F72652F697076E5
:102E1000342F646863702E63000000006468637080
:102E20005F6F7074696F6E5F6C6F6E673A206F7062
:102E300074696F6E735F6F75745F6C656E202B20A5
:102E400034203C3D20444843505F4F5054494F4E3E
:102E5000535F4C454E000000417373657274696F97
:102E60006E2022257322206661696C65642061747E
:102E7000206C696E6520256420696E2025730A0028
:102E800070B50446801C15460E46442806D907A393
:102E900040F2AE5213A122A0FEF7E8FF280A3055F7
:102EA000641CA0B23554401C80B270BD2E2E2F4D34
:102EB0006964646C6577617265732F5468697264C4
:102EC0005F50617274792F4C7749502F7372632F62
:102ED000636F72652F697076342F646863702E6338
:102EE00000000000646863705F6F7074696F6E5FEC
:102EF00073686F72743A206F7074696F6E735F6F6E
:102F000075745F6C656E202B2032203C3D20444858
:102F100043505F4F5054494F4E535F4C454E000055
:102F2000417373657274696F6E2022257322206667
:102F300061696C6564206174206C696E652025642C
:102F400020696E2025730A00FF230B54401C80B2B9
:102F5000002302E00B54401C80B24428FAD3F03026
:102F600081B2104608F05EB82DE9F04F85B0824678
:102F7000A14900200490C8600861BAF80A002C2812
:102F800017D3BAF808004FF0F00901F10C075646C4
:102F900007E000BFA9EB0201801A36681FFA81F929
:102FA00080B236B1728949464A45F3D90C4602903F
:102FB000F0E06FF0010005B0BDE8F08FA11C89B210
:102FC0004FF0FF350191A142F3D37189621C914208
:102FD00003D903992144497803E0316809B149686C
:102FE00009783428884634D007DC98B1012814D0F9
:102FF00003281AD0332808D122E0352850D03628AB
:1030000057D03A285DD03B2863D04FF00008002805
:1030100067D02DE000218846F9E7042903D077A383
:1030200040F22E6211E00625F1E74FF00408042972
:1030300004D272A340F233627EA1B2E00725E6E734
:10304000042904D06DA340F241627FA1A9E00325C9
:10305000DDE7012903D069A340F24F6225E0B9F111
:10306000F00F04D065A340F251627AA199E00025E7
:103070006018801CB0F5803F9BD284B2B8F1000F7D
:103080007AD000200090082D06D35CA34FF4CF62C5
:1030900076A17BA0FEF7EAFE785D002823D06BE0E6
:1030A000012904D055A340F255627FA179E00125A2
:1030B000ADE7042903D051A340F25962C5E70225C8
:1030C000A5E7042903D04DA340F25D62BDE70425C6
:1030D0009DE7042903D049A340F26162B5E70525C5
:1030E00095E794B248E04046B8F1040F00D30420BD
:1030F0008346024669463046019B07F009FE584563
:103100007FF457AFB8F1040F1ED95FEA887004D07E
:103110003AA340F2816267A143E00120785500980C
:1031200003F050FB0146694840F82510A8F104005F
:1031300000F0FF0801980199001D80B28842FFF459
:1031400038AF6D1C01909EE7B8F1040F07D0B8F1BD
:10315000010F08D029A34FF4D2625DA121E00098AD
:1031600003F030FB01E09DF800000090012078554D
:103170005648009940F825107089A04217D8211AA6
:103180008CB20299081A80B202908442BFF411AF47
:10319000366816B1706803900AE018A340F29D6289
:1031A00050A137A0FEF762FE6FF0050003E73EB1C5
:1031B0000298844204D20398005DFF287FF4FEAE9B
:1031C000387848B1414800210068397001280ED094
:1031D000022804D0032808D004980028E6D0002054
:1031E00004904FF02C096C20D1E6012004904FF0A0
:1031F0006C09EC20CBE60000800100202E2E2F4D24
:103200006964646C6577617265732F546869726470
:103210005F50617274792F4C7749502F7372632F0E
:10322000636F72652F697076342F646863702E63E4
:10323000000000006C656E203E3D206465636F6495
:10324000655F6C656E0000006C656E203D3D20344E
:10325000000000006F7665726C6F616420696E20FB
:1032600066696C652F736E616D65000063686563E8
:103270006B206465636F64655F69647800000000BB
:10328000417373657274696F6E2022257322206604
:1032900061696C6564206174206C696E65202564C9
:1032A00020696E2025730A006C656E203D3D20313B
:1032B000000000006465636F64655F6C656E2025C7
:1032C000252034203D3D203000000000BCDD0020E2
:1032D000696E76616C6964206465636F64655F6CB8
:1032E000656E00006E657874207062756620776187
:1032F00073206E756C6C00002DE9FC47446A07462C
:103300000421204600F03EFB01AB03222146384653
:10331000FFF76AF906003BD071680223F031894655
:1033200039224D46BDF80400FFF794FCADF80400C7
:103330003A8D2946FFF7A4FDADF804000323372298
:103340002946FFF787FCDFF88080ADF804000025F0
:10335000494618F80520BDF80400FFF7C7FC6D1CAE
:10336000EDB2ADF80400032DF2D33246494680B2E7
:10337000FFF7EAFD14480097401E4323134A3146E5
:10338000806810F0CBFA0546304607F04DFD01E0AD
:103390004FF0FF35A079FF2801D2401CA071C0B2C8
:1033A0000A2804D24FF47A7110FB01F001E042F2D6
:1033B000107080B24FF4FA7100F2F310B0FBF1F02C
:1033C00020812846BDE8FC8781010020D4530108F4
:1033D0002DE9FC47446A07460321204600F0D2FA53
:1033E00001AB032221463846FFF7FEF806004FD016
:1033F00071680223F031894639224D46BDF8040038
:10340000FFF728FCADF804004FF410722946FFF7CF
:1034100037FDADF80400042332222946FFF71AFCD9
:10342000ADF80400E06903F0CDF902462946BDF885
:103430000400FFF7B9FCADF8040003233722294646
:10344000FFF708FCDFF88080ADF80400002500BF1E
:1034500018F805204946BDF80400FFF747FC6D1C2D
:10346000EDB2ADF80400032DF2D33246494680B2E6
:10347000FFF76AFD14480097401E4323134A314664
:10348000806810F04BFA0546304607F0CDFC01E0AD
:103490004FF0FF35A079FF2801D2401CA071C0B2C7
:1034A0000A2804D24FF47A7110FB01F001E042F2D5
:1034B000107080B24FF4FA7100F2F310B0FBF1F02B
:1034C00020812846BDE8FC8781010020D4530108F3
:1034D0002DE9F0414248516816464468656A002D5E
:1034E00079D02879002876D070892C2873D3087871
:1034F000022870D1002094F8302008E023180F181B
:1035000093F82A303F7FBB4265D1401CC0B2824253
:1035100001D90628F2D3486803F054F92968884293
:1035200059D129463046FFF71FFD08BB2D49487881
:10353000F0B12D4A77681079052804D0062821D0EB
:10354000022836D047E06879012806D0032814D035
:10355000042812D0052810D03DE039462046FFF758
:103560006DFA94F83100000703D52046FEF7CCFF32
:1035700031E02046FEF704FF2DE039462046FFF7F4
:103580005DFAF6E76879032805D0012803D00428FE
:1035900001D005281FD10C21606A00F0F3F9134B0C
:1035A00020461A46114606F0AFFB2046FFF7B8F951
:1035B00011E0687906280ED12546646A887850B1F2
:1035C00000202081906803F0FDF8A0613869E06177
:1035D000284600F0D7F83046BDE8F04107F024BC9B
:1035E00094A600208C010020BCDD0020D0530108EF
:1035F0002DE9FE43446A0746002C51D0607900282B
:103600004ED0A06902900025A561E5612562656242
:103610002563E562A562A58265822582E58138463B
:1036200000F04CFA60B301AB072221463846FEF7A2
:10363000DBFF060024D071680423F031362288466F
:10364000BDF80400FFF706FBADF80400029803F094
:10365000B9F802464146BDF80400FFF7A5FBADF8F6
:10366000040032464146FFF76FFC0E4800974323A3
:1036700002AA3146806810F051F9304607F0D4FBB9
:10368000094B38461A46114606F03EFB00212046FB
:1036900000F078F92079002802D0FFF797F825711B
:1036A000BDE8FE8380010020D05301082DE9FC47CE
:1036B000446A07460521204600F064F901AB032265
:1036C00021463846FEF790FF06003CD07168022381
:1036D000F031894639224D46BDF80400FFF7BAFAA9
:1036E000ADF804003A8D2946FFF7CAFBADF8040097
:1036F000032337222946FFF7ADFADFF88480ADF8BF
:1037000004000025494618F80520BDF80400FFF71D
:10371000EDFA6D1CEDB2ADF80400032DF2D3324684
:10372000494680B2FFF710FC15480097401E43231E
:1037300004F118023146806810F0F0F80546304672
:1037400007F072FB01E04FF0FF35A079FF2801D2AE
:10375000401CA071C0B20A2804D24FF4FA6110FBD9
:1037600001F001E044F6206080B24FF4FA7100F2FB
:10377000F310B0FBF1F020812846BDE8FC87000083
:10378000810100202DE9FE43070073D07C6A002CE4
:103790007CD00121204600F0F5F802AB032221463F
:1037A0003846FEF721FF06007AD071680223F03117
:1037B000894639224D46BDF80800FFF74BFAADF8AF
:1037C00008003A8D2946FFF75BFBADF8080004239B
:1037D00032222946FFF73EFAADF80800E06902F010
:1037E000F1FF02462946BDF80800FFF7DDFAADF803
:1037F0000800042336222946FFF72CFAADF808000A
:10380000A06902F0DFFF02462946BDF80800FFF775
:10381000CBFAADF80800032337222946FFF71AFA3E
:10382000DFF8BC80ADF80800002500BF18F80520BF
:103830004946BDF80800FFF759FA6D1CEDB2ADF826
:103840000800032DF2D33246494680B2FFF77CFBD5
:1038500024484323CDE900702148234A401E3146C5
:10386000806810F0FBF80546304607F0DDFA19E0F5
:1038700000E00BE01DA340F277122AA130A0FEF772
:10388000F5FA6FF00F00BDE8FE8309E017A340F2E0
:10389000791235A12AA0FEF7E9FA6FF00500F2E7E8
:1038A0004FF0FF35A079FF2801D2401CA071C0B2B3
:1038B000062802D20121814000E03C2101EB4100B9
:1038C000C0EBC1104FF6FF7101EAC0004FF4FA716E
:1038D00000F2F310B0FBF1F020812846D3E700009E
:1038E00081010020D0530108D45301082E2E2F4D02
:1038F0006964646C6577617265732F54686972647A
:103900005F50617274792F4C7749502F7372632F17
:10391000636F72652F697076342F646863702E63ED
:1039200000000000646863705F73656C6563743ADF
:10393000206E6574696620213D204E554C4C000078
:10394000417373657274696F6E202225732220663D
:1039500061696C6564206174206C696E6520256402
:1039600020696E2025730A00646863705F73656C5C
:103970006563743A206468637020213D204E554C85
:103980004C00000042798A4203D0417100218171CC
:103990000181704770B505006FF00F041AD095F8DB
:1039A0003100C0071BD0288D6C6A4FF0FF36B0F590
:1039B000107F0DD3002C1BD0207908B1FEF706FF35
:1039C00034212046FCF7C9FCFFF76AF8002816D01E
:1039D000304670BD14A340F2E72221A103E012A3F8
:1039E0004FF43A7222A12BA0FEF740FA204670BD98
:1039F000342004F0B7FB0400EAD06C62E0E7012059
:103A0000207195F83100400705D402212046FFF7C8
:103A1000B9FF002070BD2846FEF782FF0028F9D0CC
:103A20002846FFF7E5FDD3E72E2E2F4D6964646C21
:103A30006577617265732F54686972645F50617253
:103A400074792F4C7749502F7372632F636F7265AF
:103A50002F697076342F646863702E630000000055
:103A60006E6574696620213D204E554C4C00000067
:103A70006E65746966206973206E6F742075702C92
:103A8000206F6C64207374796C6520706F72743F62
:103A900000000000417373657274696F6E20222507
:103AA0007322206661696C6564206174206C696EA4
:103AB0006520256420696E2025730A0040B1406AA4
:103AC00030B140790A2805D0052803D0042801D058
:103AD000002070470120704710B5426A04465179B2
:103AE0000C290BD0062909D001290BD0082918D0A0
:103AF000032926D19079022820461ED3BDE8104024
:103B0000FEF70EBF90790528204603D8BDE8104087
:103B1000FFF738BEFFF76CFD2046BDE81040FFF709
:103B200039BF90790128204603D8BDE81040FEF740
:103B3000EBBCBDE81040FEF723BCBDE81040FFF72A
:103B400047BC10BD70B505460C46880706D009A3D2
:103B50004FF4B67213A11BA0FEF788F908F066FCBB
:103B6000A96809682160A9680C60BDE8704008F088
:103B700085BC00002E2E2F4D6964646C65776172E0
:103B800065732F54686972645F50617274792F4C49
:103B90007749502F7372632F636F72652F6D656D58
:103BA000702E63006D656D705F667265653A206D9D
:103BB000656D2070726F7065726C7920616C6967D9
:103BC0006E656400417373657274696F6E2022259F
:103BD0007322206661696C6564206174206C696E73
:103BE0006520256420696E2025730A0070B504469F
:103BF00008F01CFC0546A0680468002C0FD0216862
:103C00000160A00706D008A34FF48C7212A11BA07C
:103C1000FEF72CF9284608F031FC204670BD2846F6
:103C200008F02CFC002070BD2E2E2F4D6964646CB2
:103C30006577617265732F54686972645F50617251
:103C400074792F4C7749502F7372632F636F7265AD
:103C50002F6D656D702E63006D656D705F6D616CAD
:103C60006C6F633A206D656D702070726F70657255
:103C70006C7920616C69676E6564000041737365DF
:103C80007274696F6E2022257322206661696C65EB
:103C900064206174206C696E6520256420696E2043
:103CA00025730A002DE9F0470F46040006D13FA313
:103CB0004FF4DC724AA14EA0FEF7D8F808F0B6FB2C
:103CC000002666602772217F41F001012177657827
:103CD000667008F0D3FB636A7BB1002204212046A2
:103CE0009847636A4BB10022114620469847636AA1
:103CF0001BB10022022120469847384603F006FCFB
:103D0000804604F11000814608F012FC18B14146CB
:103D1000484608F001FC04F11400814608F008FC54
:103D200018B14146484608F0F7FB012D0FD0042D8D
:103D30000DD0032D0BD0206A002834D0BDE8F04709
:103D40001AA340F2F71234A129A0FEF78FB8217F01
:103D5000C1F3800001F0FB012177002823D1206A04
:103D600030B912A34FF4F37232A121A0FEF77EF80E
:103D7000206A042D08D00771206A05680C35284692
:103D800008F00EFC10B108E00671F5E707A340F259
:103D9000EF122FA116A0FEF769F828462662BDE8AB
:103DA000F04708F0FABBBDE8F08700002E2E2F4D3B
:103DB0006964646C6577617265732F5468697264B5
:103DC0005F50617274792F4C7749502F7372632F53
:103DD0006170692F6170695F6D73672E6300000009
:103DE000636F6E6E20213D204E554C4C000000004C
:103DF000417373657274696F6E2022257322206689
:103E000061696C6564206174206C696E652025644D
:103E100020696E2025730A00636F6E6E2D3E6375F8
:103E20007272656E745F6D7367203D3D204E554C18
:103E30004C000000636F6E6E2D3E63757272656E8E
:103E4000745F6D736720213D204E554C4C0000007F
:103E5000696E61766C6964206F705F636F6D706C02
:103E6000657465645F73656D00000000002802DC06
:103E70004142112901DB052070470249A1EB800076
:103E8000006870474052010870B5094D064600248D
:103E900004EB440005EBC000017D29B18068B0420D
:103EA00002D1204600F036F9641C0A2CF0DB70BD0C
:103EB000DCDD00202DE9F74F84B04FF00A0B002421
:103EC0000646DA465F46D94602940194CDF8004092
:103ED000514904EB440001EBC008039098F81450DA
:103EE0000A2F1DD0002D2AD0012D08D0022D06D278
:103EF0004AA340F2231257A166A0FDF7B7FF9EB177
:103F00003168D8F8040081420ED1069820B1D8F863
:103F100008100698814207D1204607B0BDE8F08F0F
:103F2000002DE1D127460AE0012D16D0022D06D33F
:103F3000B8F812000099884201D3A2460090641C90
:103F400024B20A2CC4DB059881074FF0FF30E4D47B
:103F50000A2F16D018DA3C463EE02F49039851F854
:103F600030000028B8F8120005D002998842E6D344
:103F7000A1460290E3E701998842E0D3A34601906D
:103F8000DDE70599C907C8D05146BAF10A0F0EDA24
:103F90000C46214801EB440150F8310080B11FA3C9
:103FA00040F26D1245A13BA0FDF760FF08E05946C5
:103FB000BBF10A0F03DB4946B9F10A0FADDA0C4633
:103FC0000A2C06DB15A340F27F1242A131A0FDF7B7
:103FD0004DFF204600F09EF80A2C06DB0FA340F2AE
:103FE00083123CA12BA0FDF741FF0B4804EB4401D9
:103FF00000EBC105287D30B108A34FF4C2723AA18D
:1040000024A0FDF733FF0EB130686860002068829D
:104010000698A86080E70000DCDD00202E2E2F4DE2
:104020006964646C6577617265732F546869726442
:104030005F50617274792F4C7749502F7372632FE0
:10404000636F72652F697076342F65746861727062
:104050002E6300007374617465203D3D2045544813
:104060004152505F53544154455F50454E44494E70
:1040700047207C7C207374617465203E3D2045544C
:10408000484152505F53544154455F535441424C50
:1040900045000000417373657274696F6E202225BC
:1040A0007322206661696C6564206174206C696E9E
:1040B0006520256420696E2025730A006172705F97
:1040C0007461626C655B695D2E71203D3D204E55CB
:1040D0004C4C000069203C204152505F5441424CFE
:1040E000455F53495A4500006172705F7461626CAC
:1040F000655B695D2E7374617465203D3D20455498
:10410000484152505F53544154455F454D505459B6
:104110000000000070B5074C00EB4005002654F885
:10412000350018B106F080FE44F8356004EBC50098
:10413000067570BDDCDD00202DE9F04385B00D0073
:10414000074609D07C684FF480782088404542D1EA
:10415000207906283FD109E021A340F28A222EA12E
:1041600031A0FDF783FE05B0BDE8F0836079042837
:1041700031D1608808282ED1D4F80E000490A169AE
:10418000686820B1814202D10126334601E0002651
:10419000022304F10802914604A9284600F0ACFB72
:1041A000E088404503D0B0F5007F14D10FE096B110
:1041B000022204ABCDE90232291DCDE9001905F137
:1041C0002A0319464A46284600F096FA03E004A955
:1041D0002846FEF787F8384606F026FEC3E70000BB
:1041E0002E2E2F4D6964646C6577617265732F5450
:1041F000686972645F50617274792F4C7749502FEF
:104200007372632F636F72652F697076342F6574D4
:10421000686172702E6300006E6574696620213DCE
:10422000204E554C4C000000417373657274696FE9
:104230006E2022257322206661696C65642061749A
:10424000206C696E6520256420696E2025730A0044
:10425000FEB515460E46040006D143A340F21E32B9
:104260004FA153A0FDF702FE36B93FA340F21F3223
:1042700059A14FA0FDF7FAFD35B93BA34FF44872A1
:1042800058A14BA0FDF7F2FD2146286800F0CEFFB3
:1042900008B1584B3FE02868C0F303110E2925D020
:1042A000A168636800EA01020B409A4208D080B21C
:1042B000A0F57E41A93903D0E068B0B304F10C0544
:1042C0004D4B4E481A7802EB420100EBC1010F7DC5
:1042D000022F2ED38F68A7422BD12F6849688F42B7
:1042E00027D13146204600F08BF8FEBD01208DF825
:1042F000040000208DF805005E208DF80600687827
:1043000001AB00F07F008DF80700A8788DF8080059
:10431000E8788DF809004FF40060009004F12A025B
:104320003146204600F0C8FBFEBDFFE76FF00300FA
:10433000FAE7002202EB420100EBC1010F7D022FE0
:1043400008D38F68A74205D12F6849688F4201D1F1
:104350001A70C6E7521CD2B20A2AEBD3324629465B
:10436000204600F0D5F8DFE72E2E2F4D6964646CEF
:104370006577617265732F54686972645F5061720A
:1043800074792F4C7749502F7372632F636F726566
:104390002F697076342F6574686172702E63000027
:1043A0006E6574696620213D204E554C4C0000001E
:1043B000417373657274696F6E20222573222066C3
:1043C00061696C6564206174206C696E6520256488
:1043D00020696E2025730A007120213D204E554C26
:1043E0004C00000069706164647220213D204E55CC
:1043F0004C4C00003052010894010020DCDD00200C
:104400002DE9F8430646154688461C4802EB45014F
:1044100000EBC104207D022806D219A340F2EE224F
:1044200025A131A0FDF722FD144A05EB4501207DB1
:1044300002EBC1050C35022813D1608A0327B0F5C1
:104440008E7F04D9211D304600F010FA07E0B0F548
:10445000877F06D32A46211D304600F00DFA00B9A9
:1044600027754FF4006000902B4606F12A02414662
:10447000304600F021FBBDE8F8830000DCDD0020C1
:104480002E2E2F4D6964646C6577617265732F54AD
:10449000686972645F50617274792F4C7749502F4C
:1044A0007372632F636F72652F697076342F657432
:1044B000686172702E6300006172705F7461626C7B
:1044C000655B6172705F6964785D2E737461746599
:1044D000203E3D204554484152505F53544154457D
:1044E0005F535441424C4500417373657274696F68
:1044F0006E2022257322206661696C6564206174D8
:10450000206C696E6520256420696E2025730A0081
:104510002DE9FC5F82462A3001900E460868144659
:104520004FF0FF374FF0000B514600F07FFE80B98F
:104530003068C0F303110E290BD056B148B1524672
:1045400001213046FFF7B6FC050005D540B2BDE8B5
:10455000FC9F6FF00F00FAE77F2D06D337A340F2E0
:10456000C13244A147A0FDF781FC05F0FF094F4986
:1045700009EB490801EBC805287D00280ED0012869
:1045800008D0022806D22DA340F2CD3248A13DA08A
:10459000FDF76CFCBBF1000F06D104E0012028758B
:1045A000C5F808A000E034B93146504600F05EF985
:1045B0000746002CCBD0287D3C4E02280ED346491E
:1045C0004FF4006005F10C0381F800900090214643
:1045D0005046019A00F070FA07462DE001282BD1D1
:1045E000254640F2F13768892989884207D1286831
:1045F00028B112A33A4639A122A0FDF737FC287B47
:10460000400607D522464FF420710E2006F042FAEC
:10461000044605E02D68002DE5D1204606F09CFDFE
:1046200044B156F8380008B106F0FEFB46F83840B1
:10463000002701E04FF0FF37384688E72E2E2F4D38
:104640006964646C6577617265732F54686972641C
:104650005F50617274792F4C7749502F7372632FBA
:10466000636F72652F697076342F6574686172703C
:104670002E63000074797065206F766572666C6FCA
:1046800077000000417373657274696F6E20222594
:104690007322206661696C6564206174206C696EA8
:1046A0006520256420696E2025730A00DCDD00206A
:1046B0006172705F7461626C655B695D2E737461B9
:1046C0007465203D3D2050454E44494E47206F7251
:1046D00020535441424C4500940100206E6F2070DD
:1046E00061636B65742071756575657320616C6CB1
:1046F0006F776564210000002DE9FF4F81B0984677
:10470000DDE90FA9DDF838B006004FF0000706D14B
:104710002CA340F2574239A13CA0FDF7A7FB4FF470
:1047200020721C210E2005F069FF050046D0688923
:104730001C2806D223A340F262423EA133A0FDF71B
:1047400095FB6C68119802F03FF8E08096F8300015
:10475000062806D01BA340F2694243492BA0FDF76F
:1047600085FBD8F80010A160B8F80400A081DAF841
:104770000010C4F81210BAF80400E082DBF8000060
:10478000C4F80E00D9F80000A0614FF480702080BA
:1047900008206080062020710420607140F6060029
:1047A000DDE9022300902946304600F085F92846CD
:1047B00006F03AFB384605B0BDE8F08F4FF0FF3009
:1047C000F9E700002E2E2F4D6964646C65776172E5
:1047D00065732F54686972645F50617274792F4CED
:1047E0007749502F7372632F636F72652F697076EC
:1047F000342F6574686172702E6300006E65746991
:104800006620213D204E554C4C00000041737365DD
:104810007274696F6E2022257322206661696C654F
:1048200064206174206C696E6520256420696E20A7
:1048300025730A00636865636B2074686174206681
:104840006972737420706275662063616E20686F90
:104850006C6420737472756374206574686172701F
:104860005F6864720000000010550108014A00F002
:1048700003B80000305201087FB5064D031D012426
:10488000CDE90035CDE9021426331946FFF734FF90
:1048900004B070BD3652010870B5164D002400BF3B
:1048A00004EB440005EBC002117DF1B1508A401CBD
:1048B00080B25082B0F5967F0AD2012906D0032932
:1048C0000AD004290AD001290BD00EE0052808D30C
:1048D0002046FFF71FFC08E0042000E002201075CE
:1048E00003E0111D9068FFF7C1FF641C0A2CD7DBA1
:1048F00070BD0000DCDD0020F8B5044690F8300003
:104900001F4616460D46062806D020A340F2A912DF
:104910002CA135A0FDF7AAFA9DB1286888B12146DF
:1049200000F084FC68B92878C0F303100E2808D082
:10493000224639462846FFF7BDFA002804DA40B27D
:10494000F8BD6FF00F00F8BD00EB400130480223C6
:1049500000EBC102137594603368D360B38813828F
:104960000023538250F8315075B140F831304FF484
:1049700000600090334604F12A022946204600F0E8
:104980009BF8284606F050FA0020F8BD2E2E2F4D39
:104990006964646C6577617265732F5468697264C9
:1049A0005F50617274792F4C7749502F7372632F67
:1049B000636F72652F697076342F657468617270E9
:1049C0002E6300006E657469662D3E6877616464CD
:1049D000725F6C656E203D3D204554485F485741ED
:1049E0004444525F4C454E00417373657274696F65
:1049F0006E2022257322206661696C6564206174D3
:104A0000206C696E6520256420696E2025730A007C
:104A1000DCDD00202DE9F041044640890E270D46DB
:104A20000E283CD9E07B18B995F83400401CE0739F
:104A3000606801788689CA0714D0012905D006224A
:104A40001C49FBF795FC48B10CE0417851B98078DE
:104A50005E2807D1607B40F0100002E0607B40F0F0
:104A600008006073082E03D0B6F5C16F17D10DE0B2
:104A700095F83100000712D53946204606F0BAFBFA
:104A800068B92946204600F019FD10E095F831007C
:104A9000000704D53946204606F0ACFB18B1204685
:104AA00006F0C2F903E029462046FFF745FB002047
:104AB000BDE8F081305201082DE9F04104461F465F
:104AC00090460E46069801F07FFE05460E213046C0
:104AD00005F030FD18B16FF00100BDE8F08170689D
:104AE000858139680160B9888180D8F80020C0F8D4
:104AF0000620B8F80410418194F83000062806D04A
:104B000006A34FF4997213A11FA0FDF7AFF9314628
:104B10002046A269BDE8F041104700002E2E2F4D1F
:104B20006964646C6577617265732F546869726437
:104B30005F50617274792F4C7749502F7372632FD5
:104B40006E657469662F65746865726E65742E6330
:104B5000000000006E657469662D3E6877616464CC
:104B6000725F6C656E206D757374206265203620EF
:104B7000666F722065746865726E65745F6F7574B8
:104B80007075742100000000417373657274696F61
:104B90006E2022257322206661696C656420617431
:104BA000206C696E6520256420696E2025730A00DB
:104BB00010B5040006D10BA340F2312210A114A0BD
:104BC000FDF754F9732084F83200742084F8330020
:104BD000194860611948A061204601F0C7FA002019
:104BE00010BD00002E2E2F4C5749502F5461726774
:104BF00065742F65746865726E657469662E6300EE
:104C00006E6574696620213D204E554C4C000000B5
:104C1000417373657274696F6E202225732220665A
:104C200061696C6564206174206C696E652025641F
:104C300020696E2025730A00514200086D63000848
:104C4000104E04464FF0FF373946306805F066FBDA
:104C50000028F9D10C4807F070FC204601F026FB33
:104C600005000AD022692146904710B1284606F077
:104C7000DBF8054807F072FCECE7034807F06EFC30
:104C8000E2E70000A0000020D000002070470000F4
:104C900008B50446002000906A4601210C48FBF745
:104CA000F7FF009800F004000090216891F831208F
:104CB000520704D438B1084605F00AF903E010B9E8
:104CC000084605F0AFF8C82005F0B6F9E4E70000A3
:104CD0008C9300202DE9FC410025064601950095A6
:104CE00090F83100400742D5254C606868B34FF416
:104CF000805200212046FCF71DF9FCF75DFA4FF4C5
:104D00007A7701906A4601211D48FBF7C1FFFCF745
:104D100053FA0199401AB84217D800988006F1D585
:104D20006A4610211648FBF7B3FF0098410703D5E8
:104D30004FF40061E16000E0E560800701D5A56007
:104D40000DE04FF48040A06009E0E068A168C00871
:104D500040EA510082B200210948FCF7EBF800213B
:104D60000748FBF79BFC0648FBF7DAFF02E0044824
:104D7000FCF718F83046FFF789FFBDE8FC8100001A
:104D80008C9300202DE9F0410E4604005ED0A56909
:104D9000002D0DDA07F04AFBA569002D06DA0EB9E1
:104DA0006D1EA561BDE8F04107F068BB07F066FB2A
:104DB000284600F0ABF8040048D0012707F036FB86
:104DC00080460120052E19D2DFE806F0030A0E13F3
:104DD00016002089401C00B22081012834DC14E038
:104DE0002089401E20812FE0618901B10027608168
:104DF0000BE00020608127E0A08106E014A34FF4BF
:104E00001F6220A123A0FDF731F8A07BE0B1DFB144
:104E1000B4F90800002801DD012700E000276089BF
:104E200008B1012600E00026A08908B1012400E0B5
:104E30000024404607F022FB2346324639462846E6
:104E4000BDE8F04107F0D6B94046ABE7BDE8F081D8
:104E50002E2E2F4D6964646C6577617265732F54D3
:104E6000686972645F50617274792F4C7749502F72
:104E70007372632F6170692F736F636B6574732E28
:104E800063000000756E6B6E6F776E206576656EE1
:104E900074000000417373657274696F6E2022257F
:104EA0007322206661696C6564206174206C696E90
:104EB0006520256420696E2025730A0038B50446F4
:104EC0008DF8000069460320ABBE204638BD2DE9B1
:104ED000F0410E46044607F0A9FA002167686160B8
:104EE0002568216007F0CAFA380005D016B105F030
:104EF0009BFF01E003F01CFC002D04D02846BDE818
:104F0000F04103F0B7BEBDE8F081000010B50EF02F
:104F1000A3F8002803D1024909200860002010BD31
:104F2000A00100200A46032100F0F4B82DE9FE4F4D
:104F30008A4644490446D1F8088098F800000007E2
:104F4000850E142D79D36089042876D360680078A3
:104F5000002872D0082870D1486901F11407C0F305
:104F600003120E2A69D08946096800F05FF900280B
:104F700063D12089082860D305F10E010E46204632
:104F800005F0D8FA002830D02089411989B288422A
:104F900053D84FF420720E2005F030FB06004CD0A1
:104FA000718905F10800814216D32A46414670688E
:104FB000FBF7ACF92946304606F01CF9002806D06C
:104FC00021A3B6222EA13CA0FCF750FF04E021460D
:104FD000304605F0ADFD18B1304605F025FF2CE058
:104FE000204605F021FF34460CE03146204606F00D
:104FF00001F9002806D014A3C72239A12EA0FCF77E
:1050000035FF1AE029462046666805F093FAA0B9F4
:1050100060683968FF22C160D9F810100161002171
:10502000317071800272418101228DE806040A46C6
:10503000FF233946204600F021FB2046BDE8FE4F05
:1050400005F0F2BE94A600202E2E2F4D6964646CEC
:105050006577617265732F54686972645F5061721D
:1050600074792F4C7749502F7372632F636F726579
:105070002F697076342F69636D702E630000000015
:1050800069636D705F696E7075743A206D6F7669D3
:105090006E6720722D3E7061796C6F616420746F51
:1050A0002069636D7020686561646572206661695E
:1050B0006C65640A00000000417373657274696F67
:1050C0006E2022257322206661696C6564206174FC
:1050D000206C696E6520256420696E2025730A00A6
:1050E00069636D705F696E7075743A207265737470
:1050F0006F72696E67206F726967696E616C20708C
:105100002D3E7061796C6F6164206661696C6564C5
:105110000A0000002DE9FF479146884606464FF4F5
:1051200020722421222005F069FA050031D0688917
:10513000242806D218A34FF4B47225A12FA0FCF79F
:1051400095FE6C6877681C2284F8008084F80190D2
:105150004FF00008A4F80480A4F80680686871681D
:105160000830FBF7D3F8F868039003A800F096FC2A
:1051700060B1A4F802800122CDF80080CDE90120C1
:10518000FF2303AA0021284600F078FA284605F0FC
:105190004BFEBDE8FF8700002E2E2F4D6964646C26
:1051A0006577617265732F54686972645F506172CC
:1051B00074792F4C7749502F7372632F636F726528
:1051C0002F697076342F69636D702E6300000000C4
:1051D000636865636B2074686174206669727374B8
:1051E00020706275662063616E20686F6C64206950
:1051F000636D70206D6573736167650041737365DE
:105200007274696F6E2022257322206661696C6555
:1052100064206174206C696E6520256420696E20AD
:1052200025730A000A460B21FFF774BF421C12D0F7
:1052300088B191F8312092070BD54B68834208D092
:10524000896800EA01020B409A4202D10143491CDD
:1052500001D0002070470120704700002DE9F74F72
:1052600088B00446099800251426008DAF1F143815
:10527000C11700EB5170C0F3CF0003906068069037
:10528000017801F00F01052903D038460BB0BDE8C5
:10529000F08F6189142907D25BA34FF43F7269A193
:1052A0006FA0FCF7E3FDF0E7C08801F08DFAC0F3D2
:1052B0000C0100F4005002910790208914381FFA65
:1052C00080F88EE003984FF6FF7101EAC000414676
:1052D000404500D9084604904FF4207214210E2056
:1052E00005F08CF95FEA000A7ED0BAF80A001428AB
:1052F00006D245A34FF4497263A159A0FCF7B6FD4D
:105300001422DAF804000699FBF700F8DAF8040032
:105310000590049F35E06089811B8DB2B04206D2B2
:1053200039A340F22D3260A14DA0FCF79FFDAF42A2
:1053300000D23D461DB3052003F0A8F95FEA00093D
:1053400057D060684B463044CDE9000541222946DC
:10535000002005F0D9FA5FEA000B50D0204605F096
:10536000FBFE5549C9E904145946504605F0E8FAD0
:10537000781B07043F0C06D000262468CBE724687E
:105380000026002FC7D1701986B20998008D1438F5
:1053900040450298C0F30C0001DB079909B140F4C5
:1053A000005001F011FA0599C8800498143080B2B9
:1053B00001F00AFA05994880059800214181099871
:1053C00051460A9A43699847504605F02DFD0499C5
:1053D000A8EB01001FFA80F8DDE90201084480B261
:1053E0000290B8F1000F00E006E07FF46BAF002000
:1053F0004CE7504605F018FD4FF0FF3046E74846B1
:1054000000F07CFBF5E700002E2E2F4D6964646CE4
:105410006577617265732F54686972645F50617259
:1054200074792F4C7749502F7372632F636F7265B5
:105430002F697076342F6970345F667261672E63EE
:10544000000000006970345F6672616728293A20A5
:105450007062756620746F6F2073686F72740000DD
:10546000417373657274696F6E2022257322206602
:1054700061696C6564206174206C696E65202564C7
:1054800020696E2025730A0074686973206E656553
:1054900064732061207062756620696E206F6E658E
:1054A0002070696563652100702D3E6C656E203E3D
:1054B0003D20706F66660000D56000082DE9F0475A
:1054C000456807460E4628780421B1EB101F03D02B
:1054D000384605F0A9FC86E000074FEA9068688826
:1054E00001F072F904463889A04203D921463846B2
:1054F00005F098FD79894145EAD33889A042E7D380
:10550000B8F1140FE4D32969DFF83C91C1F303101B
:105510000E28C9F81410EA68C9F8102005D03046E2
:1055200000F096F850B1344616E096F83100C00706
:1055300002D070680028F6D1002412E099F8140017
:1055400000247F280DD04148046808E0B44205D00B
:10555000204600F07DF808B11CB10BE02468002C57
:10556000F4D1687A112805D105EB08004088B0F520
:10557000884F36D0D9F810205AB131461046FFF77F
:1055800055FE0028A4D199F81000C0F303100E288E
:105590009ED0002C9CD0E88830F0C00005D0384662
:1055A00000F038F907001ED07D68C9F80850C9E935
:1055B0000046297838460907890EA9F80C1041469B
:1055C00005F018FE687A01281AD0062813D0112891
:1055D0000CD04D462146D9F81400FFF727FEA0B1A4
:1055E00020E03446D5E70020BDE8F0873146384654
:1055F0000DF06CFE19E03146384608F0C9F814E0A9
:1056000031463846FFF792FC0FE0287DC0F30310C7
:105610000E2807D04146384605F0ECFC02213846FA
:10562000FFF780FC384605F0FFFB0021C9F80010A9
:10563000C9F80410C9F80810A9F80C10C9F810101E
:10564000C9F81410CFE7000094A600201C01002028
:1056500010B590F83110C9070CD0416851B1064A15
:1056600052698A4204D001461046FFF7DFFD08B1B7
:10567000012010BD002010BD94A60020FEB5DDE97C
:105680000954089E1AB109B10F6807B9211D009687
:10569000CDE9015400F002F8FEBD00002DE9F84FFD
:1056A0000546DDE90BA8807BDDF828B01F461646CD
:1056B0008946012806D02FA34FF455723AA13DA088
:1056C000FCF7D4FB6FF00104002E35D014212846DE
:1056D00004F030FF002832D168896C68142806D2A3
:1056E00024A34FF462723DA132A0FCF7BFFB2772E6
:1056F00084F809A0306820614520207084F801B04A
:10570000288901F061F8414F60804FF0000AA4F849
:1057100006A0388801F058F8A0803888401C3880EE
:10572000B9F1000F05D0D9F80000E060A4F80AA094
:105730000CE037480068F8E76889142802D2204650
:10574000BDE8F88F68686E4600690090B8F82800D8
:1057500040B12989814205D9324641462846FFF7A2
:105760007DFDEDE7D8F8143040463246294698478B
:10577000E6E700002E2E2F4D6964646C6577617238
:1057800065732F54686972645F50617274792F4C2D
:105790007749502F7372632F636F72652F6970762C
:1057A000342F6970342E6300702D3E726566203D83
:1057B0003D203100417373657274696F6E2022253C
:1057C0007322206661696C6564206174206C696E67
:1057D0006520256420696E2025730A00636865636F
:1057E0006B207468617420666972737420706275CE
:1057F000662063616E20686F6C64207374727563D9
:10580000742069705F6864720000000096010020D7
:10581000D05301082DE9F05F45688346287800F0F1
:105820000F0005287DD1E88800F0CEFFC004070CEA
:10583000688800F0C9FF29780907890E814270D86D
:10584000401A1FFA80F8584605F01BF96A4C0646C4
:10585000208830440A2809D93146284600F0E4FB64
:1058600000285ED0208830440A28E8D8A146646821
:105870004FF0000A0CE06069E968884207D1A0692E
:105880002969884203D1A089A988884203D0246865
:10589000002CF0D106E02CB1E88800F095FFC004A0
:1058A0001BD025E0042002F0F1FE04000AD13146AD
:1058B000284600F0B9FBB04233DB042002F0E6FEDC
:1058C0000400CED02021FAF748FD0F20E077D9F868
:1058D00004102160C9F8044004E0E08900F074FF7E
:1058E000C00405D01422294604F10800FAF70EFD81
:1058F000A87940F340156D1C08D007EB080080B272
:10590000B84263D34FF6EB7188425FD82A465946B6
:10591000204600F03BF9411C58D0B9F80020324431
:1059200000E064E0A9F8002035B107EB0801A1838D
:10593000A17F41F00101A177012845D1A08B14225C
:10594000143087B2606804F10801456828462E6863
:10595000FAF7DCFC384600F037FF6880A5F806A0AF
:10596000A5F80AA0656809E014213046776805F0BB
:1059700041FC3146284604F0E3FF3E68002EF3D197
:10598000D9F804104E468C4205D1002105E0086884
:10599000A04202D001460029F9D1204600F01AFAAF
:1059A000284605F06EF804463088A04206D213A3BC
:1059B00040F29B2220A127A0FCF758FA3088001B58
:1059C00030802846BDE8F09F0020FBE7606870B992
:1059D000D9F80400844206D008A340F2AB2227A1E4
:1059E0001CA0FCF743FA0021204600F0F3F95846CA
:1059F00005F01AFAE8E70000980100202E2E2F4D3E
:105A00006964646C6577617265732F546869726448
:105A10005F50617274792F4C7749502F7372632FE6
:105A2000636F72652F697076342F6970345F6672A8
:105A300061672E630000000069705F7265617373B7
:105A40005F70627566636F756E74203E3D20636C97
:105A5000656E0000417373657274696F6E20222554
:105A60007322206661696C6564206174206C696EC4
:105A70006520256420696E2025730A006E6F7420EE
:105A80006669727374616C74686F756768206A7593
:105A9000737420656E7175657565640070B5014637
:105AA000144813E090F83120D3070FD053070DD5D9
:105AB00043685BB184680D68234005EA04069E4292
:105AC00016D0920702D4C268954211D0006800280F
:105AD000E8D10948006850B190F83120D30706D0CA
